:1000000000300020850A00002D0D00002D0D00009D
:100010002D0D00002D0D00002D0D00002D0D0000F8
:100020002D0D00002D0D00002D0D00002D0D0000E8
:100030002D0D00002D0D00002D0D00002D0D0000D8
:100040002D0D00002D0D00002D0D00002D0D0000C8
:100050002D0D00002D0D00002D0D00002D0D0000B8
:100060002D0D00002D0D00002D0D00002D0D0000A8
:100070002D0D00002D0D00002D0D00002D0D000098
:100080002D0D00002D0D00002D0D00002D0D000088
:100090002D0D00002D0D00002D0D00002D0D000078
:1000A0002D0D00002D0D00002D0D00002D0D000068
:1000B0002D0D00002D0D00002D0D00002D0D000058
:1008000080B582B000AF72B60A23FF33181C0121F5
:1008100000F01CF81423FF33181C012100F016F817
:1008200000237B6062B67B6801337B607A68064B8D
:100830009A4207D900237B600A23FF33181C00F07B
:100840001BF8F0E7EFE7C0465FE3160080B582B023
:1008500000AF0A1CBB1D011C19807B1D1A70BB1D3B
:100860001A887B1D1B78101C01211A1C00F02CF823
:10087000BD4602B080BDC04680B582B000AF021C4C
:10088000BB1D1A80BB1D1B88181C00F0D1F8BD468B
:1008900002B080BD80B584B000AFB9607A603B1C07
:1008A0000E33021C1A803B1C0E331B881B0A9BB2A2
:1008B000DAB2BB681A703B1C0E331B88DAB27B6855
:1008C0001A70BD4604B080BD80B586B000AFBB1DB8
:1008D00018807B1D19703B1D1A70BB1D19883A1CAE
:1008E0000F323B1C0E33081C111C1A1CFFF7D2FFE1
:1008F0003B1C0F331B781A1C2A4B9200D3587B6188
:100900003B1C0F331B781A1C274B9200D3583B61BA
:100910003B1C0E331B781A1C3B1C0E331B78191C16
:100920007B698900C958214B19407B699200D150DD
:100930003B1C0E331B781A1C3B1C0E331B78191CF6
:100940007B698900CB588021490019437B6992005B
:10095000D1507B1D1B78012B14D13B695A693B1C7C
:100960000E331B780121081C9840031C1A433B6975
:100970005A61BB1D1A883B1D1B78101C191C00F006
:1009800017F80CE03B695B693A1C0E3212780121C2
:10099000081C9040021CD2431A403B695A61BD4674
:1009A00006B080BD340D0000480D0000FFF8FFFFC9
:1009B00080B584B000AF0A1CBB1D011C19807B1DD3
:1009C0001A70BB1D19883A1C0B323B1C0A33081CD9
:1009D000111C1A1CFFF75EFF3B1C0B331B781A1C03
:1009E000124B9200D358FB607B1D1B78012B0CD15E
:1009F000FB681A683B1C0A331B780121081C9840CD
:100A0000031C1A43FB681A600CE0FB681B683A1C65
:100A10000A3212780121081C9040021CD2431A406D
:100A2000FB681A60BD4604B080BDC046480D00009A
:100A300080B584B000AF021CBB1D1A80BB1D198895
:100A40003A1C0B323B1C0A33081C111C1A1CFFF702
:100A500021FF3B1C0B331B781A1C094B9200D35807
:100A6000FB60FB68DA683B1C0A331B780121081C19
:100A70009840031C1A43FB68DA60BD4604B080BD91
:100A8000480D000080B500AF084A88235B010021B3
:100A9000D15000F00DF800F035F800F051F800F0FA
:100AA00085F800F071F8FFF7ABFEFEE70070044038
:100AB00080B582B000AF0E4A0E4B9A4211D000238F
:100AC0007B600AE00B4A7B68D3181A7808497B6878
:100AD000CB181A707B6801337B607A68064B9A42A8
:100AE000F0D9064A0249064BD150BD4602B080BD3E
:100AF00000F0FF1F000000000F04000000E000E015
:100B0000080D000080B584B000AF0B4BFB600B4BB1
:100B10007B607A68FB68D31ABB6004E0FB685A1CF0
:100B2000FA6000221A70BB685A1EBA60002BF5D119
:100B3000BD4604B080BDC046100400201004002053
:100B400080B584B000AF0D4BFB600D4B3B600D4B8F
:100B5000BB603A68FB68D31A7B6007E0FB685A1CED
:100B6000FA60BA68511CB96012781A707B685A1E14
:100B70007A60002BF2D1BD4604B080BD1004002085
:100B8000100400205C0D000080B500AF054A054947
:100B9000054BCB58F82189011943034BD150BD4671
:100BA00080BDC046007004403810000080B582B09F
:100BB00000AF00237B60FB1C00221A70544B1422F0
:100BC0005A70534B98221A7000237B600AE0504BF6
:100BD0009B79DBB21A1C0223134000D006E07B682D
:100BE00001337B607A684B4B9A42F0D900237B60DB
:100BF0000AE0474B9B79DBB21A1C1023134000D14B
:100C000006E07B6801337B607A68434B9A42F0D9F7
:100C100000237B600CE03E4B9B79DBB21A1C0C235B
:100C200013409B08022B00D106E07B6801337B60F8
:100C30007A68394B9A42EED9354B354A5279D2B25D
:100C400020210A43D2B25A71314B314A1279D2B2C1
:100C500001210A43D2B21A712D4AFB1C52791A7033
:100C6000FB1CFA1C12781F218A431A70FB1CFA1C09
:100C7000127840210A431A70254BFA1C12785A71D7
:100C800000237B600AE0224B9B79DBB21A1C2023F5
:100C9000134000D006E07B6801337B607A681E4B0E
:100CA0009A42F0D900237B600AE0194B9B79DBB2B2
:100CB0001A1C4023134000D006E07B6801337B60A0
:100CC0007A68164B9A42F0D9154A164B1649D150FC
:100CD0000F4B0F4A1278D1B23F220A40D2B21A709B
:100CE00000237B600CE00A4B9B79DBB21A1C0C23BF
:100CF00013409B08032B00D106E07B6801337B6027
:100D00007A68054B9A42EED9BD4602B080BDC04616
:100D1000004006401F4E0000CF0700009F0F00005C
:100D200000700440441000000000011080B500AFC6
:100D3000BD4680BD0090044000A0044000B00440C7
:100D400000C0044000D0044000F00F4040F00F40CD
:0C0D500080F00F40C0F00F4000F10F4099
:100D5C005C0D000010040020000000005C0D000081
:100D6C0010F4FF1F00000000000000000000000055
:040D7C000000000073
:0400000300000A856A
:00000001FF
